:100000000C9434000C943E000C943E000C943E0082
:100010000C943E000C943E000C943E000C943E0068
:100020000C943E000C943E000C943E000C943E0058
:100030000C943E000C943E000C943E000C943E0048
:100040000C943E000C943E000C943E000C943E0038
:100050000C943E000C943E000C943E000C943E0028
:100060000C943E000C943E0011241FBECFEFD8E04C
:10007000DEBFCDBF0E9440000C9493000C940000A2
:10008000CF93DF9381E08093C5008FE98093C40014
:1000900088E18093C10086E08093C2007894D0E02C
:1000A000C0E060E0CE010E9485002196C11584E089
:1000B000D807B9F7D0E0C0E08091C00087FFFCCF3F
:1000C0006091C600643229F0CE010E94850021961D
:1000D000F3CFD0E0C0E0CE010E947D00843241F039
:1000E0009091C00095FFFCCF8093C6002196F3CF7E
:1000F00090E080E0DF91CF910895F999FECF92BD15
:1001000081BDF89A992780B50895262FF999FECFD9
:100110001FBA92BD81BD20BD0FB6F894FA9AF99A24
:0A0120000FBE01960895F894FFCF7A
:00000001FF
